:030000000203B048
:0C03B000787FE4F6D8FD7581440203F765
:10066E00204E543A202020432045543A2020204347
:10067E00204E4D3A2020205220454D3A2020205227
:10064E000231000002340000023F0000022D0000C3
:0F065E0002290000023A0000023D0000013C01A9
:060627007530017F64FE46
:10062D00E4FDFCC3ED9FEC9E5016E4FBEBC3946E12
:10063D007480948050030B80F30DBD00010C80E39A
:01064D00228A
:0606D0001206D61206D648
:0A06D60000000000000000000022F8
:10068E008F827F017E0012062DC296C294C295857E
:07069E008280D296C2962271
:1006A500AA077F017E0012062DC296D294C2958AB2
:0606B50080D296C29622DD
:1006BB007F387E0012068E7F0C7E0012068E7F0620
:0506CB007E0002068E16
:1000030078087C007D007BFF7A06796E7E007F1086
:1000130012024878187C007D007BFF7A06797E7E89
:10002300007F10120248AE31AF327C007D0A12020B
:100033006EEF2430F50CAE31AF327C007D0A120234
:100043006EED2430F50DAE34AF357C007D0A12021F
:100053006EEF2430F51CAE34AF357C007D0A1202FE
:100063006EED2430F51DE54264017034E543700DF7
:10007300E52F700975102A752020120627E54360C5
:100083000DE52F700975102075202A120627E52F1C
:100093006401700C751020752020F542F543F52F8F
:1000A300AE36AF377C007D0A12026EEF2430F514B2
:1000B300AE36AF377C007D0A12026EED2430F515A3
:1000C300AE38AF397C007D0A12026EEF2430F5247E
:1000D300AE38AF397C007D0A12026EED2430F5256F
:1000E300AF437E00EF7024E52F7020E54464017078
:1000F3000AF544E537153770021536E528640170B3
:100103000AF5280537E53770020536EF4E6024E51A
:100113002F7020E5446401700AF544E53915397000
:10012300021538E5286401700AF5280539E53970A8
:100133000205381206BB7F807E0012068EE4F9E9C1
:10014300C3941074809480500C740829F8E6FF124D
:1001530006A50980EA7FC07E0012068EE4F9E9C392
:10016300941074809480500C741829F8E6FF1206DA
:04017300A50980EA70
:010177002265
:10059900E4F541C2A7D2A7C2A77F14FE12062DD245
:1005A900A71206D01206D61206D020A72D20A71210
:1005B9000541AF417E00BE0BF4BFB8F1753C01E4C3
:1005C900F54130A7120541AF417E00BE0BF4BFB81B
:0B05D900F1753C01E4F541E4F53C2223
:1005E400E4F54120A7120541AF417E00BE0BF4BFE4
:1005F400B8F1753C01E4F5411206D61206D630A7CF
:100604001C752B00752C0130A7180541AF417E00E5
:10061400BE0BF4BFB8F1753C01E4F54122E4F52BBF
:03062400F52C2290
:1002C300120599E4FDFCE53C70161205E4E54025B2
:1002D300E0F540E53F33F53FE52C4240E52B423F57
:1002E3000DBD00010CED64084C70DBE4FCFDE53C46
:1002F30070161205E4E52E25E0F52EE52D33F52DD8
:10030300E52C422EE52B422D0DBD00010CED6408BA
:100313004C70DBE4FCFDE53C70161205E4E52A2590
:10032300E0F52AE52933F529E52C422AE52B422974
:100333000DBD00010CED64084C70DBE4FCFDE53CF5
:1003430070161205E4E53B25E0F53BE53A33F53A53
:10035300E52C423BE52B423A0DBD00010CED640850
:100363004C70DBE4FCFDE53C70161205E4E53E252C
:10037300E0F53EE53D33F53DE52C423EE52B423DC0
:100383000DBD00010CED64084C70DBE540252E2506
:100393002A253BF533B53E14E4B53D10E53C700C1E
:0C03A300852931852A32853F348540359C
:0103AF00222B
:10049B0020A0227F147E0012062D20A00BE53064D5
:1004AB00017005752F01F5307FD47E0312062D20C8
:1004BB00A00375420120A10D7F147E0012062D2092
:1004CB00A1036343FF20A20D7F0A7E0012062D209D
:1004DB00A20375440120A30D7F087E0012062D2078
:0604EB00A30375280122A5
:1004F100C3E5329537E5319536500AE5307006D2BD
:10050100B7C2B6D2B5D3E5329537E5319536400A53
:10051100E5307006D2B7D2B6D2B5C3E5359539E527
:10052100349538500AE5307006D2B7D2B6C2B5D389
:10053100E5359539E5349538400AE5307006D2B68F
:05054100C2B7D2B52293
:10043C00D3E532941EE5319400500BC3E53294148D
:10044C00E53194005002C2B4D3E5359450E53494B0
:10045C0000500BC3E535941EE53494005002C2B431
:10046C00D3E532941EE53194005023C3E532941445
:10047C00E53194004018D3E5359450E534940050A0
:0F048C000DC3E535941EE53494004002D2B4222E
:100546007FDC7E0512062DE4F542F52FF530F543E6
:10055600F544F528F536753719F538753928E4F573
:100566003FF540F52DF52EF529F52AF53AF53BF53B
:100576003DF53E7F32FE12062D1202C3753C011276
:10058600049B1200031200031200031204F112046A
:030596003C80CBDB
:1003BC00020546E493A3F8E493A34003F68001F20C
:1003CC0008DFF48029E493A3F85407240CC8C33342
:1003DC00C4540F4420C8834004F456800146F6DF11
:1003EC00E4800B010204081020408090064EE47E4D
:1003FC00019360BCA3FF543F30E509541FFEE49306
:10040C00A360010ECF54C025E060A840B8E493A3CC
:10041C00FAE493A3F8E493A3C8C582C8CAC583CAF7
:10042C00F0A3C8C582C8CAC583CADFE9DEE780BEAF
:01066D00008C
:10017800E709F608DFFA8046E709F208DFFA803E69
:1001880088828C83E709F0A3DFFA8032E309F60856
:10019800DFFA8078E309F208DFFA807088828C83BE
:1001A800E309F0A3DFFA806489828A83E0A3F60872
:1001B800DFFA805889828A83E0A3F208DFFA804C4C
:1001C80080D280FA80C680D4806980F28033801023
:1001D80080A680EA809A80A880DA80E280CA80338C
:1001E80089828A83ECFAE493A3C8C582C8CCC58304
:1001F800CCF0A3C8C582C8CCC583CCDFE9DEE780D4
:100208000D89828A83E493A3F608DFF9ECFAA9F052
:10021800EDFB2289828A83ECFAE0A3C8C582C8CCA8
:10022800C583CCF0A3C8C582C8CCC583CCDFEADEC1
:10023800E880DB89828A83E493A3F208DFF980CC23
:1002480088F0EF60010E4E60C388F0ED2402B4041C
:100258000050B9F582EB2402B4040050AF232345C3
:0602680082239001C8731F
:10026E00BC000BBE0029EF8DF084FFADF022E4CC74
:10027E00F875F008EF2FFFEE33FEEC33FCEE9DEC3D
:10028E00984005FCEE9DFE0FD5F0E9E4CEFD22ED83
:10029E00F8F5F0EE8420D21CFEADF075F008EF2FCD
:1002AE00FFED33FD4007985006D5F0F222C398FDBE
:0502BE000FD5F0EA225B
:00000001FF
